:100000000C942A000C943F000C943F000C943F0089
:100010000C943F000C943F000C943F000C943F0064
:100020000C943F000C943F000C943F000C943F0054
:100030000C943F000C943F000C943F000C943F0044
:100040000C943F000C943F000C943F000C943F0034
:100050000C943F0011241FBECFE5D8E0DEBFCDBF1A
:1000600010E0A0E6B0E0EAEDFFE202C005900D92DC
:10007000A03CB107D9F70E94AF0F0C94EB170C947A
:100080000000EF92FF920F931F937B018C0120E001
:1000900030E040E05FE40E94410388238CF0C80117
:1000A000B70120E030E040E05FE40E94B9010E9427
:1000B000A1039B01AC01205030404040504806C095
:1000C000C801B7010E94A1039B01AC01B901CA019B
:1000D0001F910F91FF90EF900895A0E0B0E0E3E74B
:1000E000F0E00C94B417DC012B01FA019C919230E2
:1000F00008F439C1EB018881823008F433C19430AF
:1001000069F4843009F02FC111969C91119789816F
:10011000981709F428C1A3EBB0E025C1843009F495
:1001200021C18230A9F4923009F01DC19A01AD01BC
:1001300088E0EA010990AE01E90109929E0181502F
:10014000C1F7E201898111969C918923818308C1BD
:10015000923009F407C112962D903C901397EB0151
:100160008A819B811496AD90BD90CD90DC901797BD
:10017000EC80FD800E811F819101281B390BB90194
:1001800037FF04C066277727621B730B6032710547
:100190000CF061C0121613066CF537014801062EEB
:1001A00004C096948794779467940A94D2F721E0D8
:1001B00030E040E050E004C0220F331F441F551FC1
:1001C0006A95D2F721503040404050402E213F21C7
:1001D00040235123211531054105510521F021E02E
:1001E00030E040E050E079018A01E628F72808294C
:1001F00019293CC0232BD1F1260E371E35014601AB
:10020000062E04C096948794779467940A94D2F744
:1002100021E030E040E050E004C0220F331F441FD3
:10022000551F6A95D2F721503040404050402A2156
:100230003B214C215D21211531054105510521F05E
:1002400021E030E040E050E059016A01A628B728DB
:10025000C828D9280BC0821593052CF01C01AA24AC
:10026000BB24650103C0EE24FF24870111969C91F5
:10027000D20111968C91981709F445C0992339F051
:10028000A80197012A193B094C095D0906C0A6017E
:1002900095012E193F09400B510B57FD08C01182E3
:1002A0003382228224833583468357831DC081E0B5
:1002B00081833382228288279927DC01821B930B5A
:1002C000A40BB50B84839583A683B7830DC0220F3F
:1002D000331F441F551F24833583468357838281F0
:1002E000938101979383828324813581468157814D
:1002F000DA01C9010197A109B1098F5F9F4FAF4F83
:10030000BF4328F30BC0918333822282EA0CFB1C8B
:100310000C1D1D1DE482F5820683178383E0808314
:10032000248135814681578157FF1AC0C901AA2708
:1003300097FDA095BA2F81709070A070B0705695FF
:10034000479537952795822B932BA42BB52B848328
:100350009583A683B7838281938101969383828359
:10036000DF0101C0D201CD01CDB7DEB7E2E10C94CF
:10037000D017A0E2B0E0EFEBF1E00C94C017698376
:100380007A838B839C832D833E834F835887E9E058
:10039000EE2EF12CEC0EFD1ECE010196B7010E944F
:1003A000CA048E010F5E1F4FCE010596B8010E9450
:1003B000CA048A8991E089278A8BC701B801AE01F6
:1003C000475E5F4F0E946D000E94F503A096E6E035
:1003D0000C94DC17A0E2B0E0E0EFF1E00C94C01761
:1003E00069837A838B839C832D833E834F835887D5
:1003F000F9E0EF2EF12CEC0EFD1ECE010196B701B7
:100400000E94CA048E010F5E1F4FCE010596B801EF
:100410000E94CA04C701B801AE01475E5F4F0E9447
:100420006D000E94F503A096E6E00C94DC17A0E2B4
:10043000B0E0EDE1F2E00C94B41769837A838B832A
:100440009C832D833E834F835887CE010196BE0146
:10045000675F7F4F0E94CA04CE010596BE016F5EA2
:100460007F4F0E94CA049985923088F08989823032
:10047000C8F0943019F4823051F404C0843029F467
:10048000923081F483EB90E0C6C0923049F420E0D2
:100490009A858A89981321E02A87CE010996BBC0E4
:1004A000823049F420E09A858A89981321E02A8BCA
:1004B000CE014196B0C02D843E844F8458886D880B
:1004C0007E888F88988CEE24FF248701AA24BB2481
:1004D000650140E050E060E070E0E0E0F0E0C10184
:1004E00081709070892BE9F0E60CF71C081D191D2E
:1004F0009A01AB012A0D3B1D4C1D5D1D80E090E073
:10050000A0E0B0E0E614F7040805190520F481E046
:1005100090E0A0E0B0E0BA01A901480F591F6A1F9E
:100520007B1FAA0CBB1CCC1CDD1C97FE08C081E005
:1005300090E0A0E0B0E0A82AB92ACA2ADB2A3196C6
:10054000E032F10549F0660C771C881C991C569422
:10055000479437942794C3CFFA85EA892B893C893D
:100560008B859C85280F391F2E5F3F4F17C0CA010E
:1005700081709070892B61F016950795F794E79438
:1005800080E090E0A0E0B0E8E82AF92A0A2B1B2BD3
:1005900076956795579547952F5F3F4F77FDE7CF46
:1005A0000CC0440F551F661F771F17FD4160EE0CEE
:1005B000FF1C001F111F21503040403090E05907B0
:1005C00090E0690790E4790760F32B8F3C8FDB01A3
:1005D000CA018F779070A070B07080349105A1052A
:1005E000B10561F447FD0AC0E114F10401051105EC
:1005F00029F0405C5F4F6F4F7F4F40781A8EFE1797
:1006000011F081E08A8F4D8F5E8F6F8F78A383E02A
:10061000898FCE0149960E94F503A096E2E10C94E1
:10062000D017A8E1B0E0E7E1F3E00C94C0176983CC
:100630007A838B839C832D833E834F83588789E005
:10064000E82EF12CEC0EFD1ECE010196B7010E94A2
:10065000CA048E010F5E1F4FCE010596B8010E949D
:10066000CA048985823040F08989823028F0C70128
:10067000B8010E94420501C08FEF6896E6E00C9435
:10068000DC17A8E1B0E0E7E4F3E00C94C01769835D
:100690007A838B839C832D833E834F83588789E0A5
:1006A000E82EF12CEC0EFD1ECE010196B7010E9442
:1006B000CA048E010F5E1F4FCE010596B8010E943D
:1006C000CA048985823040F08989823028F0C701C8
:1006D000B8010E94420501C08FEF6896E6E00C94D5
:1006E000DC17A8E1B0E0E7E7F3E00C94C0176983FA
:1006F0007A838B839C832D833E834F83588789E045
:10070000E82EF12CEC0EFD1ECE010196B7010E94E1
:10071000CA048E010F5E1F4FCE010596B8010E94DC
:10072000CA048985823040F08989823028F0C70167
:10073000B8010E94420501C081E06896E6E00C9491
:10074000DC17ACE0B0E0E7EAF3E00C94C41769838F
:100750007A838B839C83CE010196BE016B5F7F4FB2
:100760000E94CA048D81823061F1823050F1843060
:1007700021F48E81882351F12EC02F81388537FDD9
:1007800020C06E812F3131051CF06623F9F023C0A3
:100790008EE190E0821B930B29853A854B855C8521
:1007A00004C056954795379527958A95D2F76623C5
:1007B000B1F050954095309521953F4F4F4F5F4F89
:1007C0000EC020E030E040E050E009C02FEF3FEFE6
:1007D0004FEF5FE704C020E030E040E050E8B901AF
:1007E000CA012C96E2E00C94E017DF92EF92FF92A0
:1007F0000F931F93FC01E480F58006811781D1805F
:100800008081823048F480E090E0A0E1B0E0E82A06
:10081000F92A0A2B1B2BA5C0843009F49FC0823013
:1008200021F4EE24FF24870105C0E114F104010541
:10083000110519F4E0E0F0E096C0628173819FEF4A
:10084000623879070CF05BC022E83FEF261B370BBC
:100850002A3131052CF020E030E040E050E02AC0A1
:10086000B801A701022E04C0769567955795479564
:100870000A94D2F781E090E0A0E0B0E004C0880FD5
:10088000991FAA1FBB1F2A95D2F70197A109B10989
:100890008E219F21A023B1230097A105B10521F04E
:1008A00081E090E0A0E0B0E09A01AB01282B392B69
:1008B0004A2B5B2BDA01C9018F779070A070B07062
:1008C00080349105A105B10539F427FF09C0205CEA
:1008D0003F4F4F4F5F4F04C0215C3F4F4F4F5F4F23
:1008E000E0E0F0E02030A0E03A07A0E04A07A0E412
:1008F0005A0710F0E1E0F0E079018A0127C0603882
:10090000710564F5FB01E158FF4FD801C7018F77EE
:100910009070A070B07080349105A105B10539F4D4
:10092000E7FE0DC080E490E0A0E0B0E004C08FE3FB
:1009300090E0A0E0B0E0E80EF91E0A1F1B1F17FFB1
:1009400005C016950795F794E794319687E01695BC
:100950000795F794E7948A95D1F705C0EE24FF2414
:100960008701EFEFF0E06E2F679566276795902F70
:100970009F77D794DD24D7948E2F8695492F462BC9
:10098000582F5D29B701CA011F910F91FF90EF9079
:10099000DF900895FC01DB01408151812281622FAB
:1009A0006F7770E0221F2227221F9381892F880FE3
:1009B000822B282F30E0991F9927991F11969C931D
:1009C000119721153105A9F54115510561057105ED
:1009D00011F482E037C082E89FEF13969C938E93C8
:1009E00012979A01AB0167E0220F331F441F551F76
:1009F0006A95D1F783E08C930DC0220F331F441FFB
:100A0000551F12968D919C911397019713969C9365
:100A10008E931297203080E0380780E0480780E40A
:100A2000580758F314962D933D934D935C93179765
:100A300008952F3F310579F4411551056105710580
:100A400019F484E08C93089564FF03C081E08C93D3
:100A500012C01C9210C02F57304013963C932E9317
:100A6000129783E08C9387E0440F551F661F771F12
:100A70008A95D1F7706414964D935D936D937C9332
:100A8000179708951F93DC01FB019C91923008F4A5
:100A900047C08081823008F443C0943051F41196ED
:100AA0001C91843099F58181682F70E0611B710978
:100AB0003FC0843021F0923031F48230B9F181812D
:100AC000882389F12DC011961C9111978230F1F085
:100AD00081811817D9F412962D913C911397828138
:100AE00093818217930794F028173907BCF0149666
:100AF0008D919D910D90BC91A02D248135814681D1
:100B00005781281739074A075B0718F4112341F06A
:100B10000AC082179307A407B50740F4112319F000
:100B200061E070E005C06FEF7FEF02C060E070E051
:100B3000CB011F910895DF93CF9300D000D000D058
:100B4000CDB7DEB79E838D831A8219821A821982ED
:100B500021C08D819E81807890709C838B838B8156
:100B60009C818038910521F481E00E943B0F07C0F1
:100B70008B819C81009719F480E30E94910B8D81F9
:100B80009E81880F991F9E838D8389819A8101960A
:100B90009A83898389819A8188309105D0F226963B
:100BA0000FB6F894DEBF0FBECDBFCF91DF91089591
:100BB000DF93CF9300D00F92CDB7DEB78B831A822D
:100BC00019828B818130D1F48091BB009091BC005F
:100BD00001969093BC008093BB008091BD009091E2
:100BE000BE009A8389838091BD009091BE00880FDA
:100BF000991F9093BE008093BD0018C08B818823FD
:100C0000A9F48091BB009091BC0001969093BC0028
:100C10008093BB001A8219828091BD009091BE0022
:100C2000880F991F9093BE008093BD008091BB00F8
:100C30009091BC008930910561F481E090E090933F
:100C4000BC008093BB0081E090E09093BE00809355
:100C5000BD0089819A810F900F900F90CF91DF9105
:100C60000895DF93CF93CDB7DEB727970FB6F894EB
:100C7000DEBF0FBECDBF89836A834B838B818130FA
:100C800009F06FC08981282F30E03F832E838E8149
:100C90009F818130910549F12E813F8122303105BC
:100CA0002CF48E819F81009761F0D2C02E813F810C
:100CB0002230310571F18E819F8183309105E9F1F8
:100CC000C7C0AAE3B0E0EAE3F0E08081482F8A8160
:100CD000282F30E081E090E0022E02C0880F991F9B
:100CE0000A94E2F7842B8C93B3C0A7E3B0E0E7E368
:100CF000F0E08081482F8A81282F30E081E090E069
:100D0000022E02C0880F991F0A94E2F7842B8C935D
:100D10009FC0A4E3B0E0E4E3F0E08081482F8A8143
:100D2000282F30E081E090E0022E02C0880F991F4A
:100D30000A94E2F7842B8C938BC0A1E3B0E0E1E34B
:100D4000F0E08081482F8A81282F30E081E090E018
:100D5000022E02C0880F991F0A94E2F7842B8C930D
:100D600077C08B81882309F073C08981282F30E0F8
:100D70003D832C838C819D818130910559F12C819B
:100D80003D81223031052CF48C819D81009769F0E2
:100D90005FC02C813D812230310589F18C819D819C
:100DA0008330910509F440C053C0AAE3B0E0EAE300
:100DB000F0E08081482F8A81282F30E081E090E0A8
:100DC000022E02C0880F991F0A94E2F780958423AF
:100DD0008C933EC0A7E3B0E0E7E3F0E08081482FCA
:100DE0008A81282F30E081E090E0022E02C0880F37
:100DF000991F0A94E2F7809584238C9329C0A4E379
:100E0000B0E0E4E3F0E08081482F8A81282F30E0D1
:100E100081E090E0022E02C0880F991F0A94E2F749
:100E2000809584238C9314C0A1E3B0E0E1E3F0E06B
:100E30008081482F8A81282F30E081E090E0022EC7
:100E400002C0880F991F0A94E2F7809584238C933F
:100E500027960FB6F894DEBF0FBECDBFCF91DF91BE
:100E60000895DF93CF93CDB7DEB727970FB6F894E9
:100E7000DEBF0FBECDBF89836A834B838B818130F8
:100E800009F06FC08981282F30E03F832E838E8147
:100E90009F818130910549F12E813F8122303105BA
:100EA0002CF48E819F81009761F0D2C02E813F810A
:100EB0002230310571F18E819F8183309105E9F1F6
:100EC000C7C0ABE3B0E0EBE3F0E08081482F8A815C
:100ED000282F30E081E090E0022E02C0880F991F99
:100EE0000A94E2F7842B8C93B3C0A8E3B0E0E8E364
:100EF000F0E08081482F8A81282F30E081E090E067
:100F0000022E02C0880F991F0A94E2F7842B8C935B
:100F10009FC0A5E3B0E0E5E3F0E08081482F8A813F
:100F2000282F30E081E090E0022E02C0880F991F48
:100F30000A94E2F7842B8C938BC0A2E3B0E0E2E347
:100F4000F0E08081482F8A81282F30E081E090E016
:100F5000022E02C0880F991F0A94E2F7842B8C930B
:100F600077C08B81882309F073C08981282F30E0F6
:100F70003D832C838C819D818130910559F12C8199
:100F80003D81223031052CF48C819D81009769F0E0
:100F90005FC02C813D812230310589F18C819D819A
:100FA0008330910509F440C053C0ABE3B0E0EBE3FC
:100FB000F0E08081482F8A81282F30E081E090E0A6
:100FC000022E02C0880F991F0A94E2F780958423AD
:100FD0008C933EC0A8E3B0E0E8E3F0E08081482FC6
:100FE0008A81282F30E081E090E0022E02C0880F35
:100FF000991F0A94E2F7809584238C9329C0A5E376
:10100000B0E0E5E3F0E08081482F8A81282F30E0CE
:1010100081E090E0022E02C0880F991F0A94E2F747
:10102000809584238C9314C0A2E3B0E0E2E3F0E067
:101030008081482F8A81282F30E081E090E0022EC5
:1010400002C0880F991F0A94E2F7809584238C933D
:1010500027960FB6F894DEBF0FBECDBFCF91DF91BC
:101060000895DF93CF9300D000D00F92CDB7DEB7B5
:101070008A836B8319828A81282F30E03D832C83F9
:101080004C815D814130510541F18C819D818230DF
:10109000910534F42C813D812115310561F052C058
:1010A0004C815D814230510551F18C819D818330AD
:1010B0009105B9F147C0E9E3F0E08081282F30E0E5
:1010C0008B81882F90E0A90102C0559547958A959C
:1010D000E2F7CA018170898335C0E6E3F0E08081E0
:1010E000282F30E08B81882F90E0A90102C0559510
:1010F00047958A95E2F7CA018170898323C0E3E3AB
:10110000F0E08081282F30E08B81882F90E0A901CA
:1011100002C0559547958A95E2F7CA018170898387
:1011200011C0E0E3F0E08081282F30E08B81882F30
:1011300090E0A90102C0559547958A95E2F7CA014A
:101140008170898389810F900F900F900F900F907D
:10115000CF91DF910895DF93CF9300D000D0CDB72A
:10116000DEB789836A838981282F30E03C832B8313
:101170008B819C8181309105D1F02B813C81223083
:1011800031052CF48B819C81009761F01EC02B816E
:101190003C812230310581F08B819C818330910527
:1011A00081F013C0EAE3F0E08A8180830EC0E7E3B8
:1011B000F0E08A81808309C0E4E3F0E08A818083E3
:1011C00004C0E1E3F0E08A8180830F900F900F90DC
:1011D0000F90CF91DF910895DF93CF9300D000D08F
:1011E000CDB7DEB789836A838981282F30E03C83BD
:1011F0002B838B819C8181309105D1F02B813C81A7
:10120000223031052CF48B819C81009761F01EC047
:101210002B813C812230310581F08B819C81833090
:10122000910581F013C0EBE3F0E08A8180830EC06A
:10123000E8E3F0E08A81808309C0E5E3F0E08A8199
:10124000808304C0E2E3F0E08A8180830F900F90F6
:101250000F900F90CF91DF910895DF93CF9300D03F
:1012600000D0CDB7DEB789836A838981282F30E02B
:101270003C832B838B819C818130910549F12B81AB
:101280003C81223031052CF48B819C81009761F0E8
:101290005AC02B813C812230310571F18B819C81B8
:1012A00083309105E9F14FC0ABE3B0E0EBE3F0E050
:1012B0008081482F8A81282F30E081E090E0022E43
:1012C00002C0880F991F0A94E2F784278C933BC0D1
:1012D000A8E3B0E0E8E3F0E08081482F8A81282F7E
:1012E00030E081E090E0022E02C0880F991F0A943E
:1012F000E2F784278C9327C0A5E3B0E0E5E3F0E0B4
:101300008081482F8A81282F30E081E090E0022EF2
:1013100002C0880F991F0A94E2F784278C9313C0A8
:10132000A2E3B0E0E2E3F0E08081482F8A81282F39
:1013300030E081E090E0022E02C0880F991F0A94ED
:10134000E2F784278C930F900F900F900F90CF911E
:10135000DF910895DF93CF93CDB7DEB783E06FE0E1
:101360000E94AB0883E06FEF0E94EC08CF91DF9101
:101370000895DF93CF93CDB7DEB762970FB6F89499
:10138000DEBF0FBECDBF1A8A84E6898B188AABC038
:1013900083E0688940E00E9431071F8698C08F85EE
:1013A000982F9C5F83E0692F0E9431088A8B8A897D
:1013B000882309F089C08F85882F90E0880F991FB6
:1013C000880F991F982F8889890F898B08C08F856E
:1013D000982F9C5F83E0692F0E9431088A8B8A894D
:1013E0008823A9F380E090E0A0E0B0E48B879C879D
:1013F000AD87BE876B857C858D859E8520E030E03E
:101400004AEF54E40E941702DC01CB018F839887D6
:10141000A987BA876F81788589859A8520E030E031
:1014200040E85FE30E94710388232CF481E090E0A0
:101430009E838D833FC06F81788589859A8520E062
:101440003FEF4FE757E40E94110318164CF56B85E8
:101450007C858D859E8520E030E040E251E40E944D
:101460001702DC01CB01BC01CD010E944100DC016F
:10147000CB019E838D830FC088EC90E09C838B838F
:101480008B819C810197F1F79C838B838D819E8159
:1014900001979E838D838D819E81009769F714C08B
:1014A0006F81788589859A850E944100DC01CB0196
:1014B0009E838D838D819E819A83898389819A8180
:1014C0000197F1F79A8389838F858F5F8F878F8547
:1014D000843008F464CF83E0688941E00E943107DA
:1014E00088898F5F888B8889843008F451CF8989F7
:1014F00062960FB6F894DEBF0FBECDBFCF91DF91DD
:101500000895DF93CF93CDB7DEB76D970FB6F894FC
:10151000DEBF0FBECDBF8D8F80E060E040E00E9457
:10152000310780E061E040E00E94310782E06D8D8C
:101530000E94EC0880E062E041E00E94310780E018
:1015400090E0A0E8BFE3898F9A8FAB8FBC8F698D45
:101550007A8D8B8D9C8D20E030E04AEF54E40E9420
:101560001702DC01CB018D8B9E8BAF8BB88F6D8901
:101570007E898F89988D20E030E040E85FE30E940B
:10158000710388232CF481E090E09C8B8B8B3FC00F
:101590006D897E898F89988D20E03FEF4FE757E472
:1015A0000E94110318164CF5698D7A8D8B8D9C8DD8
:1015B00020E030E040E251E40E941702DC01CB0160
:1015C000BC01CD010E944100DC01CB019C8B8B8BC7
:1015D0000FC088EC90E09A8B898B89899A89019752
:1015E000F1F79A8B898B8B899C8901979C8B8B8BCC
:1015F0008B899C89009769F714C06D897E898F89D2
:10160000988D0E944100DC01CB019C8B8B8B8B89D8
:101610009C89988B8F878F8598890197F1F7988B94
:101620008F8780E062E040E00E94310780E090E038
:10163000A0E0B0E48B879C87AD87BE876B857C85F7
:101640008D859E8520E030E04AEF54E40E94170229
:10165000DC01CB018F839887A987BA876F81788552
:1016600089859A8520E030E040E85FE30E947103BD
:1016700088232CF481E090E09E838D833FC06F81AE
:10168000788589859A8520E03FEF4FE757E40E94EF
:10169000110318164CF56B857C858D859E8520E0A1
:1016A00030E040E251E40E941702DC01CB01BC01B2
:1016B000CD010E944100DC01CB019E838D830FC0D0
:1016C00088EC90E09C838B838B819C810197F1F760
:1016D0009C838B838D819E8101979E838D838D81D9
:1016E0009E81009769F714C06F81788589859A85F6
:1016F0000E944100DC01CB019E838D838D819E8100
:101700009A83898389819A810197F1F79A838983E2
:101710006D960FB6F894DEBF0FBECDBFCF91DF91AF
:101720000895DF93CF93CDB7DEB76D970FB6F894DA
:10173000DEBF0FBECDBF8D8F80E060E041E00E9434
:10174000310780E061E040E00E94310782E06D8D6A
:101750000E94EC0880E062E041E00E94310780E0F6
:1017600090E0A0E8BFE3898F9A8FAB8FBC8F698D23
:101770007A8D8B8D9C8D20E030E04AEF54E40E94FE
:101780001702DC01CB018D8B9E8BAF8BB88F6D89DF
:101790007E898F89988D20E030E040E85FE30E94E9
:1017A000710388232CF481E090E09C8B8B8B3FC0ED
:1017B0006D897E898F89988D20E03FEF4FE757E450
:1017C0000E94110318164CF5698D7A8D8B8D9C8DB6
:1017D00020E030E040E251E40E941702DC01CB013E
:1017E000BC01CD010E944100DC01CB019C8B8B8BA5
:1017F0000FC088EC90E09A8B898B89899A89019730
:10180000F1F79A8B898B8B899C8901979C8B8B8BA9
:101810008B899C89009769F714C06D897E898F89AF
:10182000988D0E944100DC01CB019C8B8B8B8B89B6
:101830009C89988B8F878F8598890197F1F7988B72
:101840008F8780E062E040E00E94310780E090E016
:10185000A0E0B0E48B879C87AD87BE876B857C85D5
:101860008D859E8520E030E04AEF54E40E94170207
:10187000DC01CB018F839887A987BA876F81788530
:1018800089859A8520E030E040E85FE30E9471039B
:1018900088232CF481E090E09E838D833FC06F818C
:1018A000788589859A8520E03FEF4FE757E40E94CD
:1018B000110318164CF56B857C858D859E8520E07F
:1018C00030E040E251E40E941702DC01CB01BC0190
:1018D000CD010E944100DC01CB019E838D830FC0AE
:1018E00088EC90E09C838B838B819C810197F1F73E
:1018F0009C838B838D819E8101979E838D838D81B7
:101900009E81009769F714C06F81788589859A85D3
:101910000E944100DC01CB019E838D838D819E81DD
:101920009A83898389819A810197F1F79A838983C0
:101930006D960FB6F894DEBF0FBECDBFCF91DF918D
:101940000895DF93CF93CDB7DEB7E8970FB6F8943D
:10195000DEBF0FBECDBF80E060E041E00E943106F7
:1019600080E061E041E00E94310680E062E041E019
:101970000E94310682E06FEF0E94AB0880E090E0A9
:10198000A0E2B2E48DAB9EABAFABB8AF6DA97EA9C0
:101990008FA998AD20E030E04AEF54E40E9417028E
:1019A000DC01CB0189AB9AABABABBCAB69A97AA923
:1019B0008BA99CA920E030E040E85FE30E9471031E
:1019C00088232CF481E090E098AB8FA73FC069A9F1
:1019D0007AA98BA99CA920E03FEF4FE757E40E942A
:1019E000110318164CF56DA97EA98FA998AD20E0BA
:1019F00030E040E251E40E941702DC01CB01BC015F
:101A0000CD010E944100DC01CB0198AB8FA70FC034
:101A100088EC90E09EA78DA78DA59EA50197F1F774
:101A20009EA78DA78FA598A9019798AB8FA78FA583
:101A300098A9009769F714C069A97AA98BA99CA9EC
:101A40000E944100DC01CB0198AB8FA78FA598A91C
:101A50009CA78BA78BA59CA50197F1F79CA78BA7AB
:101A60008CE30E94810A80E090E0A0E8BFE38FA3AE
:101A700098A7A9A7BAA76FA178A589A59AA520E0DC
:101A800030E04AEF54E40E941702DC01CB018BA343
:101A90009CA3ADA3BEA36BA17CA18DA19EA120E0C0
:101AA00030E040E85FE30E94710388232CF481E07A
:101AB00090E09AA389A33FC06BA17CA18DA19EA1B8
:101AC00020E03FEF4FE757E40E94110318164CF552
:101AD0006FA178A589A59AA520E030E040E251E405
:101AE0000E941702DC01CB01BC01CD010E94410024
:101AF000DC01CB019AA389A30FC088EC90E098A3E6
:101B00008F8F8F8D98A10197F1F798A38F8F89A15F
:101B10009AA101979AA389A389A19AA1009769F72D
:101B200014C06BA17CA18DA19EA10E944100DC018B
:101B3000CB019AA389A389A19AA19E8F8D8F8D8DA8
:101B40009E8D0197F1F79E8F8D8F8FE00E94810A05
:101B500080E090E0A0E8BFE3898F9A8FAB8FBC8FC5
:101B6000698D7A8D8B8D9C8D20E030E04AEF54E4B6
:101B70000E941702DC01CB018D8B9E8BAF8BB88F3F
:101B80006D897E898F89988D20E030E040E85FE3A1
:101B90000E94710388232CF481E090E09C8B8B8B56
:101BA0003FC06D897E898F89988D20E03FEF4FE798
:101BB00057E40E94110318164CF5698D7A8D8B8DB0
:101BC0009C8D20E030E040E251E40E941702DC01ED
:101BD000CB01BC01CD010E944100DC01CB019C8BFB
:101BE0008B8B0FC088EC90E09A8B898B89899A89BE
:101BF0000197F1F79A8B898B8B899C8901979C8B34
:101C00008B8B8B899C89009769F714C06D897E89BD
:101C10008F89988D0E944100DC01CB019C8B8B8BBE
:101C20008B899C89988B8F878F8598890197F1F78D
:101C3000988B8F8781E00E94810A80E090E0A0E08D
:101C4000B0E48B879C87AD87BE876B857C858D854F
:101C50009E8520E030E04AEF54E40E941702DC0148
:101C6000CB018F839887A987BA876F81788589850B
:101C70009A8520E030E040E85FE30E94710388230A
:101C80002CF481E090E09E838D833FC06F81788546
:101C900089859A8520E03FEF4FE757E40E941103C2
:101CA00018164CF56B857C858D859E8520E030E08F
:101CB00040E251E40E941702DC01CB01BC01CD01DE
:101CC0000E944100DC01CB019E838D830FC088EC14
:101CD00090E09C838B838B819C810197F1F79C839F
:101CE0008B838D819E8101979E838D838D819E81C3
:101CF000009769F714C06F81788589859A850E945D
:101D00004100DC01CB019E838D838D819E819A836E
:101D1000898389819A810197F1F79A838983E8966B
:101D20000FB6F894DEBF0FBECDBFCF91DF910895FF
:101D3000DF93CF93CDB7DEB761970FB6F894DEBFD0
:101D40000FBECDBF998B888B1F8680C08F85282FB3
:101D500030E088899989FC01E20FF31F80810E949D
:101D6000910B8F858F5F8F8780E090E0A0E0B0E4DB
:101D70008B879C87AD87BE876B857C858D859E858F
:101D800020E030E04AEF54E40E941702DC01CB016E
:101D90008F839887A987BA876F81788589859A8587
:101DA00020E030E040E85FE30E94710388232CF4D8
:101DB00081E090E09E838D833FC06F817885898527
:101DC0009A8520E03FEF4FE757E40E941103181671
:101DD0004CF56B857C858D859E8520E030E040E26A
:101DE00051E40E941702DC01CB01BC01CD010E942D
:101DF0004100DC01CB019E838D830FC088EC90E015
:101E00009C838B838B819C810197F1F79C838B83CF
:101E10008D819E8101979E838D838D819E81009708
:101E200069F714C06F81788589859A850E94410081
:101E3000DC01CB019E838D838D819E819A83898372
:101E400089819A810197F1F79A8389838F85282F59
:101E500030E088899989FC01E20FF31F8081882393
:101E600009F074CF61960FB6F894DEBF0FBECDBFF8
:101E7000CF91DF910895DF93CF9300D000D000D0B1
:101E8000CDB7DEB79E838D831C821B821A82198296
:101E900022C08B819C819C01220F331FC901880FB6
:101EA000991F880F991FF901E80FF91F8D819E81F5
:101EB0002AE030E0B9010E94A0178E0F9F1F9C837B
:101EC0008B838D819E812AE030E0B9010E94A017AA
:101ED000CB019E838D838D819E810097D1F617C0A3
:101EE0008B819C812AE030E0B9010E94A0179A837F
:101EF00089838B819C812AE030E0B9010E94A01780
:101F0000CB019C838B838981805D0E94910B8B81A7
:101F10009C81009729F726960FB6F894DEBF0FBE76
:101F2000CDBFCF91DF910895DF93CF9300D0CDB790
:101F3000DEB789836A838981882329F48A8180585E
:101F40000E94810A07C08981813021F48A818054EE
:101F50000E94810A0F900F90CF91DF910895DF9337
:101F6000CF93CDB7DEB7E3970FB6F894DEBF0FBEC1
:101F7000CDBF0E94A10C0E94AA09198E188E1F8A3B
:101F80001E8A1D8A1C8A1B8A1A8A198A188A1F8629
:101F90001C861B861A861B8E1A8E1D8E1C8E81E057
:101FA00090E098878F831E821D8281E00E94810AC3
:101FB00080E060E00E94940F81E00E943B0F80E689
:101FC00090E00E94980E80E20E94910B82E00E94B5
:101FD0003B0F84E690E00E94980E80E20E94910BF5
:101FE00083E00E943B0F88E690E00E94980E81E01B
:101FF00060E00E94940F33C00E94B909898F898DD7
:10200000843669F1898D8F3051F1898D282F30E028
:102010003BAB2AAB4AA95BA94230510581F08AA9A2
:102020009BA98330910589F02AA93BA9213031056C
:1020300091F4898D0E943B0F898D888F10C0898D06
:102040000E943B0F898D888F0AC0898D0E943B0FAB
:10205000898D888F04C08CE690E00E94980E898D4F
:102060008F3051F681E00E94810A888D813009F01D
:1020700000C280E060E00E94940F81E00E943B0F6C
:1020800082E790E00E94980E81E060E00E94940F49
:1020900082E00E943B0F8BE790E00E94980E81E067
:1020A00069E00E94940F24C00E94B9098F8B8F8928
:1020B0008436C1F08F898F30A9F08F89482F50E086
:1020C00059AB48AB88A999A98130910531F028A96D
:1020D00039A92230310521F005C08F89898B02C0D2
:1020E0008F89898B8F89813031F08F89823019F007
:1020F0008F898F30C9F681E00E94810A8989482F33
:1021000050E05FA74EA78EA59FA58130910539F0BD
:102110002EA53FA52230310509F454C02ECF84E608
:102120008F8B80E060E00E94940F84E890E00E9432
:10213000980E81E060E00E94940F89E890E00E9490
:10214000980E80E064E00E94940F26C00E94B909B6
:102150008F8B8F89843601F18F898F30E9F08F89D9
:10216000882321F480E30E94910B03C08F890E9491
:102170003B0F8F8598899C01220F331FC901880F5F
:10218000991F880F991F280F391F8F89882F90E07A
:10219000820F931F988B8F878F898F30B9F681E0DC
:1021A00064E00E94940F8F8598890E949B0506C069
:1021B0000E94B9098F8B84E6898F188E8F898E30A3
:1021C000B9F7DBCE84E68F8B80E060E00E94940F4D
:1021D00084E890E00E94980E81E060E00E94940FF5
:1021E0008EE890E00E94980E80E064E00E94940FD8
:1021F00026C00E94B9098F8B8F89843601F18F899F
:102200008F30E9F08F89882321F480E30E94910BBD
:1022100003C08F890E943B0F8F8598899C01220FF4
:10222000331FC901880F991F880F991F280F391F65
:102230008F89882F90E0820F931F988B8F878F89CB
:102240008F30B9F620C08F858F708C878F859889E5
:10225000929582958F7089279F708927988B8F8799
:102260008A85282F30E08C85482F50E0220F331FBD
:10227000CE010196820F931FFC0179965183408312
:102280008A858F5F8A878F8598890097E1F68A858E
:1022900081508A8722C08B85682F70E08A85882FBD
:1022A00090E09C01220F331FCE010196820F931FF5
:1022B000FC017996408151819B01220F331FCE0191
:1022C0000196820F931FFC017B96518340838A8580
:1022D00081508A878B858F5F8B878A858823D9F683
:1022E0008B85682F70E08A85882F90E09C01220FF3
:1022F000331FCE010196820F931FFC017996408116
:1023000051819B01220F331FCE010196820F931F33
:10231000FC017B965183408381E064E00E94940F2E
:1023200098C08A85882F90E09C01220F331FCE0130
:102330000196820F931FFC017B96808191818A30E8
:10234000910508F45FC08A85882F90E09C01220FD8
:10235000331FCE010196820F931FFC017B96808173
:1023600091818031910508F04DC08A85882F90E0D9
:102370009C01220F331FCE010196820F931FFC0197
:102380007B96408151815DA74CA78CA59DA58C3083
:10239000910541F12CA53DA52D30310558F44CA5F2
:1023A0005DA54A305105B1F08CA59DA58B309105F6
:1023B000A9F04CC02CA53DA52E303105D9F04CA577
:1023C0005DA54E30510590F08CA59DA58F309105EF
:1023D000A9F03CC081E40E94910B38C082E40E94C5
:1023E000910B34C083E40E94910B30C084E40E94BE
:1023F000910B2CC085E40E94910B28C086E40E94BA
:10240000910B24C08A85882F90E09C01220F331FF6
:10241000CE010196820F931FFC017B9680819181F2
:10242000009721F480E30E94910B10C08A85882FC9
:1024300090E09C01220F331FCE010196820F931F63
:10244000FC017B96808191810E943B0F8A858F5F82
:102450008A879A858B85891708F063CF06C00E940A
:10246000B9098F8B84E6898F188E8F898E30B9F7E2
:1024700084CD888D823009F030C280E060E00E9417
:10248000940F81E00E943B0F83E990E00E94980E38
:1024900081E060E00E94940F82E00E943B0F8BE994
:1024A00090E00E94980E81E069E00E94940F24C0A1
:1024B0000E94B9098F8B8F898436C1F08F898F3044
:1024C000A9F08F89282F30E03BA72AA74AA55BA552
:1024D0004130510531F08AA59BA58230910521F04C
:1024E00005C08F89898B02C08F89898B8F89813044
:1024F00031F08F89823019F08F898F30C9F681E0F1
:102500000E94810A8989282F30E039A728A748A589
:1025100059A54130510539F088A599A5823091051A
:1025200009F47EC02ACD84E68F8B8BE08C8380E01B
:1025300060E00E94940F89E890E00E94980E81E08C
:1025400060E00E94940F84E890E00E94980E80E082
:1025500064E00E94940F2DC00E94B9098F8B8F896F
:10256000843639F18F898F3021F180E06C810E94AF
:10257000940F8F89882339F480E30E94910B8C811A
:1025800081508C8309C08F89813031F48F890E94FA
:102590003B0F8C8181508C838F890E94D8059E8B44
:1025A0008D8B2B893C898D899E89820F931F9C8BF3
:1025B0008B8B8F898F3081F681E064E00E94940FCD
:1025C0008B899C892AE030E0B9010E94A01700970E
:1025D000D9F48B890E943B0F0DC080E30E94910BC0
:1025E0008B899C892AE030E0B9010E94A017CB01B9
:1025F0009C8B8B8B8B899C892AE030E0B9010E94EF
:10260000A017009751F303C08B890E943B0F1F8ACC
:1026100003C00E94B9098F8B8F898E30D1F7ADCC62
:1026200084E68F8B8BE08B8380E060E00E94940FC8
:1026300089E890E00E94980E81E060E00E94940F8B
:102640008EE890E00E94980E80E064E00E94940F73
:102650002DC00E94B9098F8B8F89843639F18F89FB
:102660008F3021F180E06B810E94940F8F89882345
:1026700039F480E30E94910B8B8181508B8309C0D8
:102680008F89813031F48F890E943B0F8B8181507B
:102690008B838F890E94D8059E8B8D8B2B893C89DB
:1026A0008D899E89820F931F9C8B8B8B8F898F3096
:1026B00081F620C08B898F708C878B899C8992953D
:1026C00082958F7089279F7089279C8B8B8B8A8539
:1026D000282F30E08C85482F50E0220F331FCE0189
:1026E0000196820F931FFC017996518340838A855E
:1026F0008F5F8A878B899C890097E1F68A85815054
:102700008A8722C08B85682F70E08A85882F90E0A9
:102710009C01220F331FCE010196820F931FFC01F3
:102720007996408151819B01220F331FCE01019682
:10273000820F931FFC017B96518340838A858150D1
:102740008A878B858F5F8B878A858823D9F68B85CF
:10275000682F70E08A85882F90E09C01220F331F3C
:10276000CE010196820F931FFC0179964081518121
:102770009B01220F331FCE010196820F931FFC0194
:102780007B965183408381E064E00E94940F98C05F
:102790008A85882F90E09C01220F331FCE0101967D
:1027A000820F931FFC017B96808191818A30910575
:1027B00008F45FC08A85882F90E09C01220F331FA8
:1027C000CE010196820F931FFC017B96808191813F
:1027D0008031910508F04DC08A85882F90E09C01DA
:1027E000220F331FCE010196820F931FFC017B96AF
:1027F000208131813FA32EA34EA15FA14C30510512
:1028000041F18EA19FA18D30910558F42EA13FA1D9
:102810002A303105B1F04EA15FA14B305105A9F02E
:102820004CC08EA19FA18E309105D9F02EA13FA161
:102830002E30310590F04EA15FA14F305105A9F027
:102840003CC081E40E94910B38C082E40E94910B4D
:1028500034C083E40E94910B30C084E40E94910B49
:102860002CC085E40E94910B28C086E40E94910B45
:1028700024C08A85882F90E09C01220F331FCE014F
:102880000196820F931FFC017B96808191810097B6
:1028900021F480E30E94910B10C08A85882F90E07C
:1028A0009C01220F331FCE010196820F931FFC0162
:1028B0007B96808191810E943B0F8A858F5F8A87FA
:1028C0009A858B85891708F063CF03C00E94B909E8
:1028D0008F8B8F898E30D1F750CB888D833009F064
:1028E0004CCB80E060E00E94940F81E00E943B0F9F
:1028F00083EA90E00E94980E81E060E00E94940FCD
:1029000082E00E943B0F8BEA90E00E94980E81E0EB
:1029100069E00E94940F24C00E94B9098F8B8F89AF
:102920008436C1F08F898F30A9F08F89282F30E04D
:102930003DA32CA34CA15DA14130510531F08CA1E8
:102940009DA18230910521F005C08F89898B02C03D
:102950008F89898B8F89813031F08F89823019F08E
:102960008F898F30C9F681E00E94810A8989282FDA
:1029700030E03BA32AA34AA15BA14130510539F0C5
:102980008AA19BA18230910509F47FC1F6CA80E03B
:1029900060E00E94940F8EE890E00E94980E81E023
:1029A00060E00E94940F84E890E00E94980E80E01E
:1029B00064E00E94940FA2C00E94B9098F8B8F8996
:1029C0008F3021F48F898F5F8F8B98C08F898031F2
:1029D00009F494C08F89843609F490C08F898D30B2
:1029E00009F06CC062C00E94B9098F8B8F89282FB3
:1029F00030E039A328A348A159A14330510561F122
:102A000088A199A1843091055CF428A139A12130D5
:102A10003105B1F048A159A142305105B9F033C098
:102A200088A199A18530910519F128A139A12530F6
:102A30003105C4F048A159A146305105F9F023C031
:102A400081E40E94910B8AE08F8B1DC082E40E947A
:102A5000910B8BE08F8B17C083E40E94910B8CE06D
:102A60008F8B11C084E40E94910B8DE08F8B0BC083
:102A700085E40E94910B8EE08F8B05C086E40E9456
:102A8000910B8FE08F8B8F898A3029F18F898B3062
:102A900011F18F898C30F9F08F898D30E1F08F89B9
:102AA0008E30C9F08F898F30B1F08F898D3009F465
:102AB0009ACF8F89843609F496CF0DC08F898A30DA
:102AC00050F48F89882321F480E30E94910B03C086
:102AD0008F890E943B0F8A85282F30E08F89482FED
:102AE00050E0220F331FCE010196820F931FFC018D
:102AF0007996518340838A858F5F8A878F89803159
:102B000009F05ACF8A8581508A878A85898722C0B1
:102B10008B85682F70E08A85882F90E09C01220FBA
:102B2000331FCE010196820F931FFC0179964081DD
:102B300051819B01220F331FCE010196820F931FFB
:102B4000FC017B96518340838B858F5F8B878A85C1
:102B500081508A879B8589859817D0F28B85682F4D
:102B600070E08A85882F90E09C01220F331FCE01F0
:102B70000196820F931FFC017996408151819B0140
:102B8000220F331FCE010196820F931FFC017B960B
:102B90005183408342C01A820DC08F8198858295EF
:102BA0009295907F9827807F982798878F838A8136
:102BB0008F5F8A839A818B85981778F38B8588231A
:102BC00021F481E090E098878F838B85882F90E0B7
:102BD0009C01220F331FCE010196820F931FFC012F
:102BE0007B96208131818F819885A901489F900132
:102BF000499F300D589F300D11248D819E81820F89
:102C0000931F9E838D8381E090E098878F838A85D0
:102C10008F5F8A878B8581508B879A8589858917F5
:102C200008F0B9CF81E064E00E94940F8D819E810D
:102C30002AE030E0B9010E94A0170097D9F48D81F5
:102C40000E943B0F0DC080E30E94910B8D819E81FD
:102C50002AE030E0B9010E94A017CB019E838D834A
:102C60008D819E812AE030E0B9010E94A017009773
:102C700051F307C08D810E943B0F03C00E94B90928
:102C80008F8B8F898E30D1F778C980E060E00E9409
:102C9000940F8EE890E00E94980E81E060E00E9420
:102CA000940F89E890E00E94980E80E064E00E9412
:102CB000940FA2C00E94B9098F8B8F898F3021F4A5
:102CC0008F898F5F8F8B98C08F89803109F494C072
:102CD0008F89843609F490C08F898D3009F06CC0DB
:102CE00062C00E94B9098F8B8F89282F30E03F8FF7
:102CF0002E8F4E8D5F8D4330510561F18E8D9F8DEE
:102D0000843091055CF42E8D3F8D21303105B1F07A
:102D10004E8D5F8D42305105B9F033C08E8D9F8D41
:102D20008530910519F12E8D3F8D25303105C4F088
:102D30004E8D5F8D46305105F9F023C081E40E942D
:102D4000910B8AE08F8B1DC082E40E94910B8BE077
:102D50008F8B17C083E40E94910B8CE08F8B11C086
:102D600084E40E94910B8DE08F8B0BC085E40E9460
:102D7000910B8EE08F8B05C086E40E94910B8FE053
:102D80008F8B8F898A3029F18F898B3011F18F8950
:102D90008C30F9F08F898D30E1F08F898E30C9F059
:102DA0008F898F30B1F08F898D3009F49ACF8F8958
:102DB000843609F496CF0DC08F898A3050F48F89FC
:102DC000882321F480E30E94910B03C08F890E9425
:102DD0003B0F8A85282F30E08F89482F50E0220F43
:102DE000331FCE010196820F931FFC017996518308
:102DF00040838A858F5F8A878F89803109F05ACF17
:102E00008A8581508A878A85898722C08B85682F29
:102E100070E08A85882F90E09C01220F331FCE013D
:102E20000196820F931FFC017996408151819B018D
:102E3000220F331FCE010196820F931FFC017B9658
:102E4000518340838B858F5F8B878A8581508A87EA
:102E50009B8589859817D0F28B85682F70E08A85CD
:102E6000882F90E09C01220F331FCE010196820F24
:102E7000931FFC017996408151819B01220F331FE2
:102E8000CE010196820F931FFC017B9651834083F4
:102E900042C019820DC08F81988582959295907F4E
:102EA0009827807F982798878F8389818F5F898370
:102EB00099818B85981778F38B85882321F481E09D
:102EC00090E098878F838B85882F90E09C01220F5C
:102ED000331FCE010196820F931FFC017B96208148
:102EE00031818F819885A901489F9001499F300DBC
:102EF000589F300D11248D819E81820F931F9E83D8
:102F00008D8381E090E098878F838A858F5F8A87A1
:102F10008B8581508B879A858985891708F0B9CF71
:102F200081E064E00E94940F8D819E810E949B0548
:102F300003C00E94B9098F8B8F898E30D1F71DC8CD
:102F4000AA1BBB1B51E107C0AA1FBB1FA617B707CF
:102F500010F0A61BB70B881F991F5A95A9F78095EB
:102F60009095BC01CD0108952F923F924F925F92B0
:102F70006F927F928F929F92AF92BF92CF92DF9289
:102F8000EF92FF920F931F93CF93DF93CDB7DEB7EE
:102F9000CA1BDB0B0FB6F894DEBF0FBECDBF099482
:102FA0002A88398848885F846E847D848C849B84D9
:102FB000AA84B984C884DF80EE80FD800C811B81E7
:102FC000AA81B981CE0FD11D0FB6F894DEBF0FBE16
:0A2FD000CDBFED010895F894FFCF86
:102FDA004445430042494E004845580057726F6EB7
:102FEA0067004445433E3E42696E004465633E3E87
:102FFA00486578004445433A0042494E3A004845FC
:10300A00583A0042494E3E4445430042494E3E48E2
:10301A006578004845583E444543004845583E4275
:10302A00494E0000000000000000000100010000FD
:00000001FF
